{
  "contractName": "Distribution",
  "abi": [
    {
      "constant": true,
      "inputs": [],
      "name": "SALE_AVAILABLE_TOTAL_SUPPLY",
      "outputs": [
        {
          "name": "",
          "type": "uint256"
        }
      ],
      "payable": false,
      "stateMutability": "view",
      "type": "function",
      "signature": "0x02784b67"
    },
    {
      "constant": false,
      "inputs": [
        {
          "name": "_recipient",
          "type": "address"
        },
        {
          "name": "_amount",
          "type": "uint256"
        }
      ],
      "name": "transferRevokedTokens",
      "outputs": [],
      "payable": false,
      "stateMutability": "nonpayable",
      "type": "function",
      "signature": "0x19b46083"
    },
    {
      "constant": true,
      "inputs": [],
      "name": "revokedAmount",
      "outputs": [
        {
          "name": "",
          "type": "uint256"
        }
      ],
      "payable": false,
      "stateMutability": "view",
      "type": "function",
      "signature": "0x37aeb086"
    },
    {
      "constant": true,
      "inputs": [],
      "name": "AVAILABLE_SEED_CONTRIBUTORS_SUPPLY",
      "outputs": [
        {
          "name": "",
          "type": "uint256"
        }
      ],
      "payable": false,
      "stateMutability": "view",
      "type": "function",
      "signature": "0x4bbc1de7"
    },
    {
      "constant": true,
      "inputs": [],
      "name": "AVAILABLE_OTHER_SUPPLY",
      "outputs": [
        {
          "name": "",
          "type": "uint256"
        }
      ],
      "payable": false,
      "stateMutability": "view",
      "type": "function",
      "signature": "0x4dd1efa0"
    },
    {
      "constant": false,
      "inputs": [
        {
          "name": "_beneficiary",
          "type": "address"
        }
      ],
      "name": "withdraw",
      "outputs": [],
      "payable": false,
      "stateMutability": "nonpayable",
      "type": "function",
      "signature": "0x51cff8d9"
    },
    {
      "constant": true,
      "inputs": [],
      "name": "PROJECT_INITIAL_SUPPLY",
      "outputs": [
        {
          "name": "",
          "type": "uint256"
        }
      ],
      "payable": false,
      "stateMutability": "view",
      "type": "function",
      "signature": "0x61b74b46"
    },
    {
      "constant": false,
      "inputs": [
        {
          "name": "_beneficiary",
          "type": "address"
        },
        {
          "name": "_nextBeneficiary",
          "type": "address"
        }
      ],
      "name": "updateVestingBeneficiary",
      "outputs": [],
      "payable": false,
      "stateMutability": "nonpayable",
      "type": "function",
      "signature": "0x7767c10a"
    },
    {
      "constant": true,
      "inputs": [],
      "name": "AVAILABLE_FUTURE_OFFERING_SUPPLY",
      "outputs": [
        {
          "name": "",
          "type": "uint256"
        }
      ],
      "payable": false,
      "stateMutability": "view",
      "type": "function",
      "signature": "0x82411c89"
    },
    {
      "constant": true,
      "inputs": [],
      "name": "owner",
      "outputs": [
        {
          "name": "",
          "type": "address"
        }
      ],
      "payable": false,
      "stateMutability": "view",
      "type": "function",
      "signature": "0x8da5cb5b"
    },
    {
      "constant": true,
      "inputs": [],
      "name": "isOwner",
      "outputs": [
        {
          "name": "",
          "type": "bool"
        }
      ],
      "payable": false,
      "stateMutability": "view",
      "type": "function",
      "signature": "0x8f32d59b"
    },
    {
      "constant": true,
      "inputs": [],
      "name": "AVAILABLE_TEAM_SUPPLY",
      "outputs": [
        {
          "name": "",
          "type": "uint256"
        }
      ],
      "payable": false,
      "stateMutability": "view",
      "type": "function",
      "signature": "0x98431a78"
    },
    {
      "constant": true,
      "inputs": [],
      "name": "AVAILABLE_CONSULTANTS_SUPPLY",
      "outputs": [
        {
          "name": "",
          "type": "uint256"
        }
      ],
      "payable": false,
      "stateMutability": "view",
      "type": "function",
      "signature": "0x9d05d777"
    },
    {
      "constant": true,
      "inputs": [],
      "name": "openingTime",
      "outputs": [
        {
          "name": "",
          "type": "uint256"
        }
      ],
      "payable": false,
      "stateMutability": "view",
      "type": "function",
      "signature": "0xb7a8807c"
    },
    {
      "constant": true,
      "inputs": [],
      "name": "PROJECT_AVAILABLE_TOTAL_SUPPLY",
      "outputs": [
        {
          "name": "",
          "type": "uint256"
        }
      ],
      "payable": false,
      "stateMutability": "view",
      "type": "function",
      "signature": "0xc5efb556"
    },
    {
      "constant": true,
      "inputs": [
        {
          "name": "",
          "type": "address"
        }
      ],
      "name": "vestings",
      "outputs": [
        {
          "name": "startTimestamp",
          "type": "uint256"
        },
        {
          "name": "endTimestamp",
          "type": "uint256"
        },
        {
          "name": "lockPeriod",
          "type": "uint256"
        },
        {
          "name": "balanceInitial",
          "type": "uint256"
        },
        {
          "name": "balanceClaimed",
          "type": "uint256"
        },
        {
          "name": "balanceRemaining",
          "type": "uint256"
        },
        {
          "name": "bonusInitial",
          "type": "uint256"
        },
        {
          "name": "bonusClaimed",
          "type": "uint256"
        },
        {
          "name": "bonusRemaining",
          "type": "uint256"
        },
        {
          "name": "revocable",
          "type": "bool"
        },
        {
          "name": "revoked",
          "type": "bool"
        }
      ],
      "payable": false,
      "stateMutability": "view",
      "type": "function",
      "signature": "0xdaf49863"
    },
    {
      "constant": true,
      "inputs": [],
      "name": "SALE_INITIAL_SUPPLY",
      "outputs": [
        {
          "name": "",
          "type": "uint256"
        }
      ],
      "payable": false,
      "stateMutability": "view",
      "type": "function",
      "signature": "0xe69bb5ca"
    },
    {
      "constant": false,
      "inputs": [
        {
          "name": "_beneficiary",
          "type": "address"
        }
      ],
      "name": "revokeVestingSchedule",
      "outputs": [],
      "payable": false,
      "stateMutability": "nonpayable",
      "type": "function",
      "signature": "0xf035a272"
    },
    {
      "constant": false,
      "inputs": [
        {
          "name": "newOwner",
          "type": "address"
        }
      ],
      "name": "transferOwnership",
      "outputs": [],
      "payable": false,
      "stateMutability": "nonpayable",
      "type": "function",
      "signature": "0xf2fde38b"
    },
    {
      "constant": true,
      "inputs": [],
      "name": "MAX_TOKENS",
      "outputs": [
        {
          "name": "",
          "type": "uint256"
        }
      ],
      "payable": false,
      "stateMutability": "view",
      "type": "function",
      "signature": "0xf47c84c5"
    },
    {
      "inputs": [
        {
          "name": "_openingTime",
          "type": "uint256"
        }
      ],
      "payable": false,
      "stateMutability": "nonpayable",
      "type": "constructor",
      "signature": "constructor"
    },
    {
      "anonymous": false,
      "inputs": [
        {
          "indexed": false,
          "name": "_beneficiary",
          "type": "address"
        },
        {
          "indexed": false,
          "name": "_amount",
          "type": "uint256"
        },
        {
          "indexed": false,
          "name": "_bonus",
          "type": "uint256"
        }
      ],
      "name": "NewVesting",
      "type": "event",
      "signature": "0x627ad26dcfe82ec79b33fda0ddd062f6fab9f4914acac8345f79090dfd86fb54"
    },
    {
      "anonymous": false,
      "inputs": [
        {
          "indexed": false,
          "name": "_recipient",
          "type": "address"
        },
        {
          "indexed": false,
          "name": "_amount",
          "type": "uint256"
        }
      ],
      "name": "Withdrawn",
      "type": "event",
      "signature": "0x7084f5476618d8e60b11ef0d7d3f06914655adb8793e28ff7f018d4c76d505d5"
    },
    {
      "anonymous": false,
      "inputs": [
        {
          "indexed": false,
          "name": "_beneficiary",
          "type": "address"
        }
      ],
      "name": "RevokedVesting",
      "type": "event",
      "signature": "0x8cd79b36eae18470f999ddc31362fc2315d3508e4e0f687df8b09f866164ff2f"
    },
    {
      "anonymous": false,
      "inputs": [
        {
          "indexed": false,
          "name": "_beneficiary",
          "type": "address"
        },
        {
          "indexed": false,
          "name": "_newBeneficiary",
          "type": "address"
        }
      ],
      "name": "UpdateVesting",
      "type": "event",
      "signature": "0xd77a2228cdb1c1e8932bfd6a14ee457fcb127fc8513666e2f16bdb5687d631c8"
    },
    {
      "anonymous": false,
      "inputs": [
        {
          "indexed": false,
          "name": "_type",
          "type": "string"
        },
        {
          "indexed": false,
          "name": "_uint",
          "type": "uint256"
        }
      ],
      "name": "LogInt",
      "type": "event",
      "signature": "0x3b53f2745f01e9cc7d8317d92cca0b2e25a1e0f710c5b65c2da4002d794e399f"
    },
    {
      "anonymous": false,
      "inputs": [
        {
          "indexed": true,
          "name": "previousOwner",
          "type": "address"
        },
        {
          "indexed": true,
          "name": "newOwner",
          "type": "address"
        }
      ],
      "name": "OwnershipTransferred",
      "type": "event",
      "signature": "0x8be0079c531659141344cd1fd0a4f28419497f9722a3daafe3b4186f6b6457e0"
    },
    {
      "constant": false,
      "inputs": [
        {
          "name": "_beneficiary",
          "type": "address"
        },
        {
          "name": "_category",
          "type": "uint8"
        }
      ],
      "name": "scheduleProjectVesting",
      "outputs": [],
      "payable": true,
      "stateMutability": "payable",
      "type": "function",
      "signature": "0x64544002"
    },
    {
      "constant": false,
      "inputs": [
        {
          "name": "_beneficiary",
          "type": "address"
        },
        {
          "name": "_bonus",
          "type": "uint256"
        }
      ],
      "name": "schedulePrivateSaleVesting",
      "outputs": [],
      "payable": true,
      "stateMutability": "payable",
      "type": "function",
      "signature": "0x2d709717"
    },
    {
      "constant": false,
      "inputs": [
        {
          "name": "_beneficiary",
          "type": "address"
        },
        {
          "name": "_bonus",
          "type": "uint256"
        }
      ],
      "name": "schedulePublicSaleVesting",
      "outputs": [],
      "payable": true,
      "stateMutability": "payable",
      "type": "function",
      "signature": "0x44af46ca"
    },
    {
      "constant": true,
      "inputs": [],
      "name": "projectSupplyDistributed",
      "outputs": [
        {
          "name": "",
          "type": "uint256"
        }
      ],
      "payable": false,
      "stateMutability": "view",
      "type": "function",
      "signature": "0x1d786891"
    },
    {
      "constant": true,
      "inputs": [],
      "name": "saleSupplyDistributed",
      "outputs": [
        {
          "name": "",
          "type": "uint256"
        }
      ],
      "payable": false,
      "stateMutability": "view",
      "type": "function",
      "signature": "0xbc1b745c"
    }
  ],
  "bytecode": "0x60806040526012600a0a6311e1a300026003556012600a0a63080befc0026004556012600a0a6303938700026005556012600a0a63016e3600026006556012600a0a621e8480026007556012600a0a6301406f40026008556012600a0a6301ab3f0002600955600454600a556012600a0a6309d5b34002600b55600b54600c553480156200008c57600080fd5b5060405160208062002a3283398101806040526020811015620000ae57600080fd5b8101908080519060200190929190505050336000806101000a81548173ffffffffffffffffffffffffffffffffffffffff021916908373ffffffffffffffffffffffffffffffffffffffff1602179055506000809054906101000a900473ffffffffffffffffffffffffffffffffffffffff1673ffffffffffffffffffffffffffffffffffffffff16600073ffffffffffffffffffffffffffffffffffffffff167f8be0079c531659141344cd1fd0a4f28419497f9722a3daafe3b4186f6b6457e060405160405180910390a34281101515156200018b57600080fd5b6200021e60095462000201600854620001e4600754620001c7600654600554620002736401000000000262002161179091906401000000009004565b620002736401000000000262002161179091906401000000009004565b620002736401000000000262002161179091906401000000009004565b620002736401000000000262002161179091906401000000009004565b600a541415156200022e57600080fd5b62000255600b54600454620002736401000000000262002161179091906401000000009004565b6003541415156200026557600080fd5b80600d819055505062000295565b60008082840190508381101515156200028b57600080fd5b8091505092915050565b61278d80620002a56000396000f3fe608060405260043610610149576000357c0100000000000000000000000000000000000000000000000000000000900463ffffffff16806302784b671461014e57806319b46083146101795780631d786891146101d45780632d709717146101ff57806337aeb0861461024d57806344af46ca146102785780634bbc1de7146102c65780634dd1efa0146102f157806351cff8d91461031c57806361b74b461461036d57806364544002146103985780637767c10a146103e957806382411c891461045a5780638da5cb5b146104855780638f32d59b146104dc57806398431a781461050b5780639d05d77714610536578063b7a8807c14610561578063bc1b745c1461058c578063c5efb556146105b7578063daf49863146105e2578063e69bb5ca14610695578063f035a272146106c0578063f2fde38b14610711578063f47c84c514610762575b600080fd5b34801561015a57600080fd5b5061016361078d565b6040518082815260200191505060405180910390f35b34801561018557600080fd5b506101d26004803603604081101561019c57600080fd5b81019080803573ffffffffffffffffffffffffffffffffffffffff16906020019092919080359060200190929190505050610793565b005b3480156101e057600080fd5b506101e9610859565b6040518082815260200191505060405180910390f35b61024b6004803603604081101561021557600080fd5b81019080803573ffffffffffffffffffffffffffffffffffffffff16906020019092919080359060200190929190505050610867565b005b34801561025957600080fd5b506102626108d2565b6040518082815260200191505060405180910390f35b6102c46004803603604081101561028e57600080fd5b81019080803573ffffffffffffffffffffffffffffffffffffffff169060200190929190803590602001909291905050506108d8565b005b3480156102d257600080fd5b506102db610943565b6040518082815260200191505060405180910390f35b3480156102fd57600080fd5b50610306610949565b6040518082815260200191505060405180910390f35b34801561032857600080fd5b5061036b6004803603602081101561033f57600080fd5b81019080803573ffffffffffffffffffffffffffffffffffffffff16906020019092919050505061094f565b005b34801561037957600080fd5b50610382610e7c565b6040518082815260200191505060405180910390f35b6103e7600480360360408110156103ae57600080fd5b81019080803573ffffffffffffffffffffffffffffffffffffffff169060200190929190803560ff169060200190929190505050610e82565b005b3480156103f557600080fd5b506104586004803603604081101561040c57600080fd5b81019080803573ffffffffffffffffffffffffffffffffffffffff169060200190929190803573ffffffffffffffffffffffffffffffffffffffff1690602001909291905050506111b7565b005b34801561046657600080fd5b5061046f6116e8565b6040518082815260200191505060405180910390f35b34801561049157600080fd5b5061049a6116ee565b604051808273ffffffffffffffffffffffffffffffffffffffff1673ffffffffffffffffffffffffffffffffffffffff16815260200191505060405180910390f35b3480156104e857600080fd5b506104f1611717565b604051808215151515815260200191505060405180910390f35b34801561051757600080fd5b5061052061176e565b6040518082815260200191505060405180910390f35b34801561054257600080fd5b5061054b611774565b6040518082815260200191505060405180910390f35b34801561056d57600080fd5b5061057661177a565b6040518082815260200191505060405180910390f35b34801561059857600080fd5b506105a1611780565b6040518082815260200191505060405180910390f35b3480156105c357600080fd5b506105cc61178e565b6040518082815260200191505060405180910390f35b3480156105ee57600080fd5b506106316004803603602081101561060557600080fd5b81019080803573ffffffffffffffffffffffffffffffffffffffff169060200190929190505050611794565b604051808c81526020018b81526020018a815260200189815260200188815260200187815260200186815260200185815260200184815260200183151515158152602001821515151581526020019b50505050505050505050505060405180910390f35b3480156106a157600080fd5b506106aa611808565b6040518082815260200191505060405180910390f35b3480156106cc57600080fd5b5061070f600480360360208110156106e357600080fd5b81019080803573ffffffffffffffffffffffffffffffffffffffff16906020019092919050505061180e565b005b34801561071d57600080fd5b506107606004803603602081101561073457600080fd5b81019080803573ffffffffffffffffffffffffffffffffffffffff169060200190929190505050611cde565b005b34801561076e57600080fd5b50610777611cfd565b6040518082815260200191505060405180910390f35b600c5481565b61079b611717565b15156107a657600080fd5b60015481111515156107b757600080fd5b600073ffffffffffffffffffffffffffffffffffffffff168273ffffffffffffffffffffffffffffffffffffffff16141515156107f357600080fd5b61080881600154611d0390919063ffffffff16565b6001819055508173ffffffffffffffffffffffffffffffffffffffff166108fc829081150290604051600060405180830381858888f19350505050158015610854573d6000803e3d6000fd5b505050565b6000600a5460045403905090565b61086f611717565b151561087a57600080fd5b600034905060006108948383611d0390919063ffffffff16565b90506108a1848285611d25565b6108b18482854242600080611f03565b6108c682600c54611d0390919063ffffffff16565b600c8190555050505050565b60015481565b6108e0611717565b15156108eb57600080fd5b600034905060006109058383611d0390919063ffffffff16565b9050610912848285611d25565b6109228482854242600080611f03565b61093782600c54611d0390919063ffffffff16565b600c8190555050505050565b60065481565b60085481565b8073ffffffffffffffffffffffffffffffffffffffff163373ffffffffffffffffffffffffffffffffffffffff1614151561098957600080fd5b610991612702565b600260008373ffffffffffffffffffffffffffffffffffffffff1673ffffffffffffffffffffffffffffffffffffffff16815260200190815260200160002061016060405190810160405290816000820154815260200160018201548152602001600282015481526020016003820154815260200160048201548152602001600582015481526020016006820154815260200160078201548152602001600882015481526020016009820160009054906101000a900460ff161515151581526020016009820160019054906101000a900460ff161515151581525050905060008160a001511180610a8757506000816101000151115b1515610a9257600080fd5b600081600001514210158015610aac575060008260a00151115b15610c26576000610ad983600001518460200151856040015186606001518760a001518860800151612103565b90506000811115610c24577f3b53f2745f01e9cc7d8317d92cca0b2e25a1e0f710c5b65c2da4002d794e399f816040518080602001838152602001828103825260128152602001807f776974686472617761626c65416d6f756e7400000000000000000000000000008152506020019250505060405180910390a1610b6b81846080015161216190919063ffffffff16565b600260008673ffffffffffffffffffffffffffffffffffffffff1673ffffffffffffffffffffffffffffffffffffffff16815260200190815260200160002060040181905550610bc8818460a00151611d0390919063ffffffff16565b600260008673ffffffffffffffffffffffffffffffffffffffff1673ffffffffffffffffffffffffffffffffffffffff16815260200190815260200160002060050181905550610c21818361216190919063ffffffff16565b91505b505b81602001514210158015610c3f57506000826101000151115b15610dbb576000610c6d83600001518460200151856040015186606001518760e00151886101000151612182565b90506000811115610db9577f3b53f2745f01e9cc7d8317d92cca0b2e25a1e0f710c5b65c2da4002d794e399f816040518080602001838152602001828103825260118152602001807f776974686472617761626c65426f6e75730000000000000000000000000000008152506020019250505060405180910390a1610cff818460e0015161216190919063ffffffff16565b600260008673ffffffffffffffffffffffffffffffffffffffff1673ffffffffffffffffffffffffffffffffffffffff16815260200190815260200160002060070181905550610d5d81846101000151611d0390919063ffffffff16565b600260008673ffffffffffffffffffffffffffffffffffffffff1673ffffffffffffffffffffffffffffffffffffffff16815260200190815260200160002060080181905550610db6818361216190919063ffffffff16565b91505b505b6000811115610e77578273ffffffffffffffffffffffffffffffffffffffff166108fc829081150290604051600060405180830381858888f19350505050158015610e0a573d6000803e3d6000fd5b507f7084f5476618d8e60b11ef0d7d3f06914655adb8793e28ff7f018d4c76d505d58382604051808373ffffffffffffffffffffffffffffffffffffffff1673ffffffffffffffffffffffffffffffffffffffff1681526020018281526020019250505060405180910390a15b505050565b60045481565b610e8a611717565b1515610e9557600080fd5b600034905060006004811115610ea757fe5b826004811115610eb357fe5b1415610f0057610ec68382600554612262565b610edb81600554611d0390919063ffffffff16565b600581905550610efb838260004263038dab00420162278d006001611f03565b611197565b60016004811115610f0d57fe5b826004811115610f1957fe5b1415610f5d57610f2c8382600654612262565b610f4181600654611d0390919063ffffffff16565b600681905550610f58838260004242600080611f03565b611196565b60026004811115610f6a57fe5b826004811115610f7657fe5b1415610ff057610f898382600754612262565b610f9e81600754611d0390919063ffffffff16565b6007819055508273ffffffffffffffffffffffffffffffffffffffff166108fc829081150290604051600060405180830381858888f19350505050158015610fea573d6000803e3d6000fd5b50611195565b60036004811115610ffd57fe5b82600481111561100957fe5b14156110835761101c8382600854612262565b61103181600854611d0390919063ffffffff16565b6008819055508273ffffffffffffffffffffffffffffffffffffffff166108fc829081150290604051600060405180830381858888f1935050505015801561107d573d6000803e3d6000fd5b50611194565b60048081111561108f57fe5b82600481111561109b57fe5b1415611115576110ae8382600954612262565b6110c381600954611d0390919063ffffffff16565b6009819055508273ffffffffffffffffffffffffffffffffffffffff166108fc829081150290604051600060405180830381858888f1935050505015801561110f573d6000803e3d6000fd5b50611193565b6000151560011515141515611192576040517f08c379a000000000000000000000000000000000000000000000000000000000815260040180806020018281038252601e8152602001807f70726f6a6563742063617465676f7279206e6f7420737570706f72746564000081525060200191505060405180910390fd5b5b5b5b5b5b6111ac81600a54611d0390919063ffffffff16565b600a81905550505050565b6111bf611717565b15156111ca57600080fd5b6111d2612702565b600260008473ffffffffffffffffffffffffffffffffffffffff1673ffffffffffffffffffffffffffffffffffffffff16815260200190815260200160002061016060405190810160405290816000820154815260200160018201548152602001600282015481526020016003820154815260200160048201548152602001600582015481526020016006820154815260200160078201548152602001600882015481526020016009820160009054906101000a900460ff161515151581526020016009820160019054906101000a900460ff161515151581525050905060008160a0015111806112c857506000816101000151115b15156112d357600080fd5b600081608001511415156112e657600080fd5b60008160000151141515156112fa57600080fd5b6000600260008473ffffffffffffffffffffffffffffffffffffffff1673ffffffffffffffffffffffffffffffffffffffff168152602001908152602001600020600001541415156113da576040517f08c379a00000000000000000000000000000000000000000000000000000000081526004018080602001828103825260228152602001807f63616e206e6f74206f7665727772697465206578697374696e6720766573746981526020017f6e6700000000000000000000000000000000000000000000000000000000000081525060400191505060405180910390fd5b6000600260008473ffffffffffffffffffffffffffffffffffffffff1673ffffffffffffffffffffffffffffffffffffffff168152602001908152602001600020600301541415156114ba576040517f08c379a00000000000000000000000000000000000000000000000000000000081526004018080602001828103825260228152602001807f63616e206e6f74206f7665727772697465206578697374696e6720766573746981526020017f6e6700000000000000000000000000000000000000000000000000000000000081525060400191505060405180910390fd5b80600260008473ffffffffffffffffffffffffffffffffffffffff1673ffffffffffffffffffffffffffffffffffffffff168152602001908152602001600020600082015181600001556020820151816001015560408201518160020155606082015181600301556080820151816004015560a0820151816005015560c0820151816006015560e0820151816007015561010082015181600801556101208201518160090160006101000a81548160ff0219169083151502179055506101408201518160090160016101000a81548160ff021916908315150217905550905050600260008473ffffffffffffffffffffffffffffffffffffffff1673ffffffffffffffffffffffffffffffffffffffff168152602001908152602001600020600080820160009055600182016000905560028201600090556003820160009055600482016000905560058201600090556006820160009055600782016000905560088201600090556009820160006101000a81549060ff02191690556009820160016101000a81549060ff021916905550507fd77a2228cdb1c1e8932bfd6a14ee457fcb127fc8513666e2f16bdb5687d631c88383604051808373ffffffffffffffffffffffffffffffffffffffff1673ffffffffffffffffffffffffffffffffffffffff1681526020018273ffffffffffffffffffffffffffffffffffffffff1673ffffffffffffffffffffffffffffffffffffffff1681526020019250505060405180910390a1505050565b60095481565b60008060009054906101000a900473ffffffffffffffffffffffffffffffffffffffff16905090565b60008060009054906101000a900473ffffffffffffffffffffffffffffffffffffffff1673ffffffffffffffffffffffffffffffffffffffff163373ffffffffffffffffffffffffffffffffffffffff1614905090565b60055481565b60075481565b600d5481565b6000600c54600b5403905090565b600a5481565b60026020528060005260406000206000915090508060000154908060010154908060020154908060030154908060040154908060050154908060060154908060070154908060080154908060090160009054906101000a900460ff16908060090160019054906101000a900460ff1690508b565b600b5481565b611816611717565b151561182157600080fd5b611829612702565b600260008373ffffffffffffffffffffffffffffffffffffffff1673ffffffffffffffffffffffffffffffffffffffff16815260200190815260200160002061016060405190810160405290816000820154815260200160018201548152602001600282015481526020016003820154815260200160048201548152602001600582015481526020016006820154815260200160078201548152602001600882015481526020016009820160009054906101000a900460ff161515151581526020016009820160019054906101000a900460ff161515151581525050905060011515816101200151151514151561191f57600080fd5b60001515816101400151151514151561193757600080fd5b600061195f82600001518360200151846040015185606001518660a001518760800151612103565b9050600061198a83600001518460200151856040015186606001518760e00151886101000151612182565b905060006119a5838560a00151611d0390919063ffffffff16565b905060006119c0838660c00151611d0390919063ffffffff16565b90506119e9816119db8460015461216190919063ffffffff16565b61216190919063ffffffff16565b600181905550611a0684866080015161216190919063ffffffff16565b600260008873ffffffffffffffffffffffffffffffffffffffff1673ffffffffffffffffffffffffffffffffffffffff168152602001908152602001600020600401819055506000600260008873ffffffffffffffffffffffffffffffffffffffff1673ffffffffffffffffffffffffffffffffffffffff16815260200190815260200160002060050181905550611aab838660e0015161216190919063ffffffff16565b600260008873ffffffffffffffffffffffffffffffffffffffff1673ffffffffffffffffffffffffffffffffffffffff168152602001908152602001600020600701819055506000600260008873ffffffffffffffffffffffffffffffffffffffff1673ffffffffffffffffffffffffffffffffffffffff168152602001908152602001600020600801819055506001600260008873ffffffffffffffffffffffffffffffffffffffff1673ffffffffffffffffffffffffffffffffffffffff16815260200190815260200160002060090160016101000a81548160ff0219169083151502179055506000841180611ba35750600083115b15611c73576000611bbd848661216190919063ffffffff16565b90508673ffffffffffffffffffffffffffffffffffffffff166108fc829081150290604051600060405180830381858888f19350505050158015611c05573d6000803e3d6000fd5b507f7084f5476618d8e60b11ef0d7d3f06914655adb8793e28ff7f018d4c76d505d58782604051808373ffffffffffffffffffffffffffffffffffffffff1673ffffffffffffffffffffffffffffffffffffffff1681526020018281526020019250505060405180910390a1505b7f8cd79b36eae18470f999ddc31362fc2315d3508e4e0f687df8b09f866164ff2f86604051808273ffffffffffffffffffffffffffffffffffffffff1673ffffffffffffffffffffffffffffffffffffffff16815260200191505060405180910390a1505050505050565b611ce6611717565b1515611cf157600080fd5b611cfa816124f9565b50565b60035481565b6000828211151515611d1457600080fd5b600082840390508091505092915050565b42600d5411151515611d3657600080fd5b600082111515611dd4576040517f08c379a00000000000000000000000000000000000000000000000000000000081526004018080602001828103825260308152602001807f6e6f20656e6f75676820746f6b656e732073656e7420746f20616c6c6f63617481526020017f6520746f2062656e65666963696172790000000000000000000000000000000081525060400191505060405180910390fd5b600073ffffffffffffffffffffffffffffffffffffffff168373ffffffffffffffffffffffffffffffffffffffff1614151515611e1057600080fd5b6000611e3982611e2b85600c54611d0390919063ffffffff16565b611d0390919063ffffffff16565b10151515611eaf576040517f08c379a00000000000000000000000000000000000000000000000000000000081526004018080602001828103825260178152602001807f73616c65206d617820737570706c79207265616368656400000000000000000081525060200191505060405180910390fd5b6000611ec6611ebf8460006125f3565b6064612631565b90506000611edf611ed88560236125f3565b6064612631565b9050818310158015611ef15750808311155b1515611efc57600080fd5b5050505050565b6000600260008973ffffffffffffffffffffffffffffffffffffffff1673ffffffffffffffffffffffffffffffffffffffff16815260200190815260200160002060000154141515611f5457600080fd5b610160604051908101604052808581526020018481526020018381526020018781526020016000815260200187815260200186815260200160008152602001868152602001821515815260200160001515815250600260008973ffffffffffffffffffffffffffffffffffffffff1673ffffffffffffffffffffffffffffffffffffffff168152602001908152602001600020600082015181600001556020820151816001015560408201518160020155606082015181600301556080820151816004015560a0820151816005015560c0820151816006015560e0820151816007015561010082015181600801556101208201518160090160006101000a81548160ff0219169083151502179055506101408201518160090160016101000a81548160ff0219169083151502179055509050507f627ad26dcfe82ec79b33fda0ddd062f6fab9f4914acac8345f79090dfd86fb54878787604051808473ffffffffffffffffffffffffffffffffffffffff1673ffffffffffffffffffffffffffffffffffffffff168152602001838152602001828152602001935050505060405180910390a150505050505050565b6000806121128888888861265b565b905060006121298483611d0390919063ffffffff16565b9050874210151561213e578492505050612157565b8085111515612151578492505050612157565b80925050505b9695505050505050565b600080828401905083811015151561217857600080fd5b8091505092915050565b60006121a98561219b878961216190919063ffffffff16565b61216190919063ffffffff16565b421015156121b957819050612258565b6121cc858761216190919063ffffffff16565b4210151561225357600061220e6001612200886121f28c8c611d0390919063ffffffff16565b61263190919063ffffffff16565b61216190919063ffffffff16565b9050600061221c8683612631565b905060006122338683611d0390919063ffffffff16565b90508085101561224857849350505050612258565b809350505050612258565b600090505b9695505050505050565b42600d541115151561227357600080fd5b600082111515612311576040517f08c379a00000000000000000000000000000000000000000000000000000000081526004018080602001828103825260308152602001807f6e6f20656e6f75676820746f6b656e732073656e7420746f20616c6c6f63617481526020017f6520746f2062656e65666963696172790000000000000000000000000000000081525060400191505060405180910390fd5b600073ffffffffffffffffffffffffffffffffffffffff168373ffffffffffffffffffffffffffffffffffffffff16141515156123b6576040517f08c379a00000000000000000000000000000000000000000000000000000000081526004018080602001828103825260138152602001807f6e6f7420612076616c696420616464726573730000000000000000000000000081525060200191505060405180910390fd5b60006123cb8383611d0390919063ffffffff16565b10151515612467576040517f08c379a00000000000000000000000000000000000000000000000000000000081526004018080602001828103825260238152602001807f70726f6a6563742063617465676f7279206d617820737570706c79207265616381526020017f686564000000000000000000000000000000000000000000000000000000000081525060400191505060405180910390fd5b600061247e83600a54611d0390919063ffffffff16565b101515156124f4576040517f08c379a000000000000000000000000000000000000000000000000000000000815260040180806020018281038252601a8152602001807f70726f6a656374206d617820737570706c79207265616368656400000000000081525060200191505060405180910390fd5b505050565b600073ffffffffffffffffffffffffffffffffffffffff168173ffffffffffffffffffffffffffffffffffffffff161415151561253557600080fd5b8073ffffffffffffffffffffffffffffffffffffffff166000809054906101000a900473ffffffffffffffffffffffffffffffffffffffff1673ffffffffffffffffffffffffffffffffffffffff167f8be0079c531659141344cd1fd0a4f28419497f9722a3daafe3b4186f6b6457e060405160405180910390a3806000806101000a81548173ffffffffffffffffffffffffffffffffffffffff021916908373ffffffffffffffffffffffffffffffffffffffff16021790555050565b600080831415612606576000905061262b565b6000828402905082848281151561261957fe5b0414151561262657600080fd5b809150505b92915050565b6000808211151561264157600080fd5b6000828481151561264e57fe5b0490508091505092915050565b6000834210151561266e578190506126fa565b60006126a8600161269a8661268c8a8a611d0390919063ffffffff16565b61263190919063ffffffff16565b61216190919063ffffffff16565b9050600060016126d3866126c58a42611d0390919063ffffffff16565b61263190919063ffffffff16565b01905060006126e28584612631565b905060006126f082846125f3565b9050809450505050505b949350505050565b61016060405190810160405280600081526020016000815260200160008152602001600081526020016000815260200160008152602001600081526020016000815260200160008152602001600015158152602001600015158152509056fea165627a7a723058202d585d6ae9e8143e0f8cd5266badc4b62d72b0827b88ed91b01b771e9f6218300029",
  "source": "pragma solidity ^0.5.0;\n\nimport './utils/SafeMath.sol';\nimport \"./utils/Ownable.sol\";\nimport './Vesting.sol';\n\ncontract Distribution is Ownable, Vesting {\n  using SafeMath for uint256;\n\n  enum Category {TEAM, SEED_CONTRIBUTORS, CONSULTANTS, OTHER, FUTURE_OFFERING}\n\n  uint256 private constant decimalFactor = 10 ** uint256(18);\n  uint256 public MAX_TOKENS = 300000000 * decimalFactor;\n\n  uint256 public PROJECT_INITIAL_SUPPLY = 135000000 * decimalFactor; // 45.00% of total amount\n  uint256 public AVAILABLE_TEAM_SUPPLY = 60000000 * decimalFactor; // 20.00% released over 24 months\n  uint256 public AVAILABLE_SEED_CONTRIBUTORS_SUPPLY = 24000000 * decimalFactor; // 8.00% released over 5 months\n  uint256 public AVAILABLE_CONSULTANTS_SUPPLY = 2000000 * decimalFactor; //  1.00% released at Token Distribution (TD)\n  uint256 public AVAILABLE_OTHER_SUPPLY = 21000000 * decimalFactor; //  7.00% released at Token Distribution (TD)\n  uint256 public AVAILABLE_FUTURE_OFFERING_SUPPLY = 28000000 * decimalFactor; //  9.00% released at Token Distribution (TD)\n  uint256 public PROJECT_AVAILABLE_TOTAL_SUPPLY = PROJECT_INITIAL_SUPPLY;\n\n  uint256 public SALE_INITIAL_SUPPLY = 165000000 * decimalFactor; // 55.00% of total amount\n  uint256 public SALE_AVAILABLE_TOTAL_SUPPLY = SALE_INITIAL_SUPPLY;\n\n  uint256 private constant BONUS_MIN = 0;\n  uint256 private constant BONUS_MAX = 35;\n\n  uint256 public openingTime;\n\n  /**\n   * @param _openingTime The time when LS can setup vesting schedules for sale contributors and the team\n   */\n  constructor(uint256 _openingTime) Ownable() public {\n    // make sure the start time is in the future\n    require(_openingTime >= now);\n    // the total of the different pools must equal the total project supply\n    require(PROJECT_AVAILABLE_TOTAL_SUPPLY == AVAILABLE_TEAM_SUPPLY.add(AVAILABLE_SEED_CONTRIBUTORS_SUPPLY).add(AVAILABLE_CONSULTANTS_SUPPLY).add(AVAILABLE_OTHER_SUPPLY).add(AVAILABLE_FUTURE_OFFERING_SUPPLY));\n    // all tokens are split between sale and project\n    require(MAX_TOKENS == PROJECT_INITIAL_SUPPLY.add(SALE_INITIAL_SUPPLY));\n      \n    openingTime = _openingTime;\n  }\n\n  /**\n   * @notice Allow the owner of the contract to assign a new allocation from the project pool.\n   *\n   * @param _beneficiary The recipient of the allocation\n   * @param _category The total supply the allocation will be taken from\n   */\n  function scheduleProjectVesting(address payable _beneficiary, Category _category) onlyOwner public payable {\n    uint _amount = msg.value;\n\n    if (_category == Category.TEAM) {\n      _validateScheduleProjectVesting(_beneficiary, _amount, AVAILABLE_TEAM_SUPPLY);\n\n      AVAILABLE_TEAM_SUPPLY = AVAILABLE_TEAM_SUPPLY.sub(_amount);\n      setVestingSchedule(_beneficiary, _amount, 0, now, now + 690 days, 30 days, true);\n    } else if (_category == Category.SEED_CONTRIBUTORS) {\n      _validateScheduleProjectVesting(_beneficiary, _amount, AVAILABLE_SEED_CONTRIBUTORS_SUPPLY);\n\n      AVAILABLE_SEED_CONTRIBUTORS_SUPPLY = AVAILABLE_SEED_CONTRIBUTORS_SUPPLY.sub(_amount);\n      setVestingSchedule(_beneficiary, _amount, 0, now, now, 0 days, false);\n    }  else if (_category == Category.CONSULTANTS) {\n      _validateScheduleProjectVesting(_beneficiary, _amount, AVAILABLE_CONSULTANTS_SUPPLY);\n\n      AVAILABLE_CONSULTANTS_SUPPLY = AVAILABLE_CONSULTANTS_SUPPLY.sub(_amount);\n      _beneficiary.transfer(_amount);\n    } else if (_category == Category.OTHER) {\n      _validateScheduleProjectVesting(_beneficiary, _amount, AVAILABLE_OTHER_SUPPLY);\n\n      AVAILABLE_OTHER_SUPPLY = AVAILABLE_OTHER_SUPPLY.sub(_amount);\n      _beneficiary.transfer(_amount);\n    } else if (_category == Category.FUTURE_OFFERING) {\n      _validateScheduleProjectVesting(_beneficiary, _amount, AVAILABLE_FUTURE_OFFERING_SUPPLY);\n\n      AVAILABLE_FUTURE_OFFERING_SUPPLY = AVAILABLE_FUTURE_OFFERING_SUPPLY.sub(_amount);\n      _beneficiary.transfer(_amount);\n    } else {\n      require(true == false, \"project category not supported\");\n    }\n\n    PROJECT_AVAILABLE_TOTAL_SUPPLY = PROJECT_AVAILABLE_TOTAL_SUPPLY.sub(_amount);\n  }\n\n  /**\n   * @notice Allow the owner of the contract to assign a new allocation from the sale pool.\n   *\n   * @param _beneficiary The recipient of the allocation\n   * @param _bonus How many tokens out of the ones sent in \"msg.value\" should be scheduled for vesting as a bonus\n   */\n  function schedulePrivateSaleVesting(address _beneficiary, uint256 _bonus) onlyOwner public payable {\n    uint _amountIncludingBonus = msg.value;\n    uint _amount = _amountIncludingBonus.sub(_bonus);\n\n    _validateSaleVesting(_beneficiary, _amount, _bonus);\n\n    setVestingSchedule(_beneficiary, _amount, _bonus, now, now, 0 days, false);\n\n    SALE_AVAILABLE_TOTAL_SUPPLY = SALE_AVAILABLE_TOTAL_SUPPLY.sub(_amountIncludingBonus);\n  }\n\n  /**\n   * @notice Allow the owner of the contract to send part of sale tokens to public sale contributors without vesting.\n   *\n   * @param _beneficiary The recipient of the allocation\n   * @param _bonus How many tokens out of the ones sent in \"msg.value\" should be scheduled for vesting as a bonus\n   */\n  function schedulePublicSaleVesting(address _beneficiary, uint256 _bonus) onlyOwner public payable {\n    uint _amountIncludingBonus = msg.value;\n    uint _amount = _amountIncludingBonus.sub(_bonus);\n\n    _validateSaleVesting(_beneficiary, _amount, _bonus);\n\n    setVestingSchedule(_beneficiary, _amount, _bonus, now, now, 0 days, false);\n\n    SALE_AVAILABLE_TOTAL_SUPPLY = SALE_AVAILABLE_TOTAL_SUPPLY.sub(_amountIncludingBonus);\n  }\n\n  function _validateScheduleProjectVesting(\n    address _beneficiary,\n    uint256 _amount,\n    uint256 _categorySupply\n  )\n  internal view\n  {\n    require(openingTime <= now);\n\n    require(_amount > 0, 'no enough tokens sent to allocate to beneficiary');\n    require(_beneficiary != address(0), 'not a valid address');\n    require(_categorySupply.sub(_amount) >= 0, 'project category max supply reached');\n\n    require(PROJECT_AVAILABLE_TOTAL_SUPPLY.sub(_amount) >= 0, 'project max supply reached');\n  }\n\n  function _validateSaleVesting(\n    address _beneficiary,\n    uint256 _amount,\n    uint256 _bonus\n  )\n  internal view\n  {\n    require(openingTime <= now);\n\n    require(_amount > 0, 'no enough tokens sent to allocate to beneficiary');\n    require(_beneficiary != address(0));\n    require(SALE_AVAILABLE_TOTAL_SUPPLY.sub(_amount).sub(_bonus) >= 0, 'sale max supply reached');\n\n    uint256 bonusMin = SafeMath.div(\n      SafeMath.mul(_amount, BONUS_MIN),\n      100\n    );\n\n    uint256 bonusMax = SafeMath.div(\n      SafeMath.mul(_amount, BONUS_MAX),\n      100\n    );\n\n    require(_bonus >= bonusMin && _bonus <= bonusMax);\n  }\n\n\n  function projectSupplyDistributed() public view returns (uint256) {\n    return PROJECT_INITIAL_SUPPLY - PROJECT_AVAILABLE_TOTAL_SUPPLY;\n  }\n\n  function saleSupplyDistributed() public view returns (uint256) {\n    return SALE_INITIAL_SUPPLY - SALE_AVAILABLE_TOTAL_SUPPLY;\n  }\n}",
  "sourcePath": "/home/ggarrido/lightstreams/workspace/tge/contracts/Distribution.sol",
  "compiler": {
    "name": "solc",
    "version": "0.5.0+commit.1d4f565a.Emscripten.clang"
  },
  "schemaVersion": "3.0.6",
  "updatedAt": "2019-07-17T14:03:52.358Z",
  "devdoc": {
    "methods": {
      "constructor": {
        "params": {
          "_openingTime": "The time when LS can setup vesting schedules for sale contributors and the team"
        }
      },
      "isOwner()": {
        "return": "true if `msg.sender` is the owner of the contract."
      },
      "owner()": {
        "return": "the address of the owner."
      },
      "revokeVestingSchedule(address)": {
        "details": "Allows the to revoke the vesting schedule for a contributor with a vesting schedule",
        "params": {
          "_beneficiary": "Address of contributor with a vesting schedule to be revoked"
        }
      },
      "schedulePrivateSaleVesting(address,uint256)": {
        "params": {
          "_beneficiary": "The recipient of the allocation",
          "_bonus": "How many tokens out of the ones sent in \"msg.value\" should be scheduled for vesting as a bonus"
        }
      },
      "scheduleProjectVesting(address,uint8)": {
        "params": {
          "_beneficiary": "The recipient of the allocation",
          "_category": "The total supply the allocation will be taken from"
        }
      },
      "schedulePublicSaleVesting(address,uint256)": {
        "params": {
          "_beneficiary": "The recipient of the allocation",
          "_bonus": "How many tokens out of the ones sent in \"msg.value\" should be scheduled for vesting as a bonus"
        }
      },
      "transferOwnership(address)": {
        "details": "Allows the current owner to transfer control of the contract to a newOwner.",
        "params": {
          "newOwner": "The address to transfer ownership to."
        }
      },
      "transferRevokedTokens(address,uint256)": {
        "details": "Allows the owner to transfer any tokens that have been revoked to be transfered to another address",
        "params": {
          "_amount": "Number of tokens to be transfer to recipient",
          "_recipient": "The address where the tokens should be sent"
        }
      },
      "updateVestingBeneficiary(address,address)": {
        "details": "Allow the owner of the contract to update the beneficiary of a vesting schedule",
        "params": {
          "_beneficiary": "The recipient of the vestingSchedule",
          "_nextBeneficiary": "The new recipient of the vestingSchedule"
        }
      },
      "withdraw(address)": {
        "details": "Allows the beneficiary of a vesting schedule to release vested tokens to their account/wallet",
        "params": {
          "_beneficiary": "The address of the recipient of vested tokens"
        }
      }
    }
  },
  "userdoc": {
    "methods": {
      "schedulePrivateSaleVesting(address,uint256)": {
        "notice": "Allow the owner of the contract to assign a new allocation from the sale pool."
      },
      "scheduleProjectVesting(address,uint8)": {
        "notice": "Allow the owner of the contract to assign a new allocation from the project pool."
      },
      "schedulePublicSaleVesting(address,uint256)": {
        "notice": "Allow the owner of the contract to send part of sale tokens to public sale contributors without vesting."
      }
    }
  }
}