{
  "contractName": "Vesting",
  "abi": [
    {
      "constant": true,
      "inputs": [],
      "name": "revokedAmount",
      "outputs": [
        {
          "name": "",
          "type": "uint256"
        }
      ],
      "payable": false,
      "stateMutability": "view",
      "type": "function"
    },
    {
      "constant": true,
      "inputs": [],
      "name": "owner",
      "outputs": [
        {
          "name": "",
          "type": "address"
        }
      ],
      "payable": false,
      "stateMutability": "view",
      "type": "function"
    },
    {
      "constant": true,
      "inputs": [],
      "name": "isOwner",
      "outputs": [
        {
          "name": "",
          "type": "bool"
        }
      ],
      "payable": false,
      "stateMutability": "view",
      "type": "function"
    },
    {
      "constant": true,
      "inputs": [
        {
          "name": "",
          "type": "address"
        }
      ],
      "name": "vestings",
      "outputs": [
        {
          "name": "startTimestamp",
          "type": "uint256"
        },
        {
          "name": "endTimestamp",
          "type": "uint256"
        },
        {
          "name": "lockPeriod",
          "type": "uint256"
        },
        {
          "name": "balanceInitial",
          "type": "uint256"
        },
        {
          "name": "balanceClaimed",
          "type": "uint256"
        },
        {
          "name": "balanceRemaining",
          "type": "uint256"
        },
        {
          "name": "bonusInitial",
          "type": "uint256"
        },
        {
          "name": "bonusClaimed",
          "type": "uint256"
        },
        {
          "name": "bonusRemaining",
          "type": "uint256"
        },
        {
          "name": "revocable",
          "type": "bool"
        },
        {
          "name": "revoked",
          "type": "bool"
        }
      ],
      "payable": false,
      "stateMutability": "view",
      "type": "function"
    },
    {
      "constant": false,
      "inputs": [
        {
          "name": "newOwner",
          "type": "address"
        }
      ],
      "name": "transferOwnership",
      "outputs": [],
      "payable": false,
      "stateMutability": "nonpayable",
      "type": "function"
    },
    {
      "inputs": [],
      "payable": false,
      "stateMutability": "nonpayable",
      "type": "constructor"
    },
    {
      "anonymous": false,
      "inputs": [
        {
          "indexed": false,
          "name": "_beneficiary",
          "type": "address"
        },
        {
          "indexed": false,
          "name": "_amount",
          "type": "uint256"
        },
        {
          "indexed": false,
          "name": "_bonus",
          "type": "uint256"
        }
      ],
      "name": "NewVesting",
      "type": "event"
    },
    {
      "anonymous": false,
      "inputs": [
        {
          "indexed": false,
          "name": "_recipient",
          "type": "address"
        },
        {
          "indexed": false,
          "name": "_amount",
          "type": "uint256"
        }
      ],
      "name": "Withdrawn",
      "type": "event"
    },
    {
      "anonymous": false,
      "inputs": [
        {
          "indexed": false,
          "name": "_beneficiary",
          "type": "address"
        }
      ],
      "name": "RevokedVesting",
      "type": "event"
    },
    {
      "anonymous": false,
      "inputs": [
        {
          "indexed": false,
          "name": "_beneficiary",
          "type": "address"
        },
        {
          "indexed": false,
          "name": "_newBeneficiary",
          "type": "address"
        }
      ],
      "name": "UpdateVesting",
      "type": "event"
    },
    {
      "anonymous": false,
      "inputs": [
        {
          "indexed": false,
          "name": "_type",
          "type": "string"
        },
        {
          "indexed": false,
          "name": "_uint",
          "type": "uint256"
        }
      ],
      "name": "LogInt",
      "type": "event"
    },
    {
      "anonymous": false,
      "inputs": [
        {
          "indexed": true,
          "name": "previousOwner",
          "type": "address"
        },
        {
          "indexed": true,
          "name": "newOwner",
          "type": "address"
        }
      ],
      "name": "OwnershipTransferred",
      "type": "event"
    },
    {
      "constant": false,
      "inputs": [
        {
          "name": "_beneficiary",
          "type": "address"
        }
      ],
      "name": "withdraw",
      "outputs": [],
      "payable": false,
      "stateMutability": "nonpayable",
      "type": "function"
    },
    {
      "constant": false,
      "inputs": [
        {
          "name": "_beneficiary",
          "type": "address"
        }
      ],
      "name": "revokeVestingSchedule",
      "outputs": [],
      "payable": false,
      "stateMutability": "nonpayable",
      "type": "function"
    },
    {
      "constant": false,
      "inputs": [
        {
          "name": "_beneficiary",
          "type": "address"
        },
        {
          "name": "_nextBeneficiary",
          "type": "address"
        }
      ],
      "name": "updateVestingBeneficiary",
      "outputs": [],
      "payable": false,
      "stateMutability": "nonpayable",
      "type": "function"
    },
    {
      "constant": false,
      "inputs": [
        {
          "name": "_recipient",
          "type": "address"
        },
        {
          "name": "_amount",
          "type": "uint256"
        }
      ],
      "name": "transferRevokedTokens",
      "outputs": [],
      "payable": false,
      "stateMutability": "nonpayable",
      "type": "function"
    }
  ],
  "bytecode": "0x608060405234801561001057600080fd5b50336000806101000a81548173ffffffffffffffffffffffffffffffffffffffff021916908373ffffffffffffffffffffffffffffffffffffffff1602179055506000809054906101000a900473ffffffffffffffffffffffffffffffffffffffff1673ffffffffffffffffffffffffffffffffffffffff16600073ffffffffffffffffffffffffffffffffffffffff167f8be0079c531659141344cd1fd0a4f28419497f9722a3daafe3b4186f6b6457e060405160405180910390a36118e3806100dc6000396000f3fe608060405260043610610099576000357c0100000000000000000000000000000000000000000000000000000000900463ffffffff16806319b460831461009e57806337aeb086146100f957806351cff8d9146101245780637767c10a146101755780638da5cb5b146101e65780638f32d59b1461023d578063daf498631461026c578063f035a2721461031f578063f2fde38b14610370575b600080fd5b3480156100aa57600080fd5b506100f7600480360360408110156100c157600080fd5b81019080803573ffffffffffffffffffffffffffffffffffffffff169060200190929190803590602001909291905050506103c1565b005b34801561010557600080fd5b5061010e610487565b6040518082815260200191505060405180910390f35b34801561013057600080fd5b506101736004803603602081101561014757600080fd5b81019080803573ffffffffffffffffffffffffffffffffffffffff16906020019092919050505061048d565b005b34801561018157600080fd5b506101e46004803603604081101561019857600080fd5b81019080803573ffffffffffffffffffffffffffffffffffffffff169060200190929190803573ffffffffffffffffffffffffffffffffffffffff1690602001909291905050506109ba565b005b3480156101f257600080fd5b506101fb610eeb565b604051808273ffffffffffffffffffffffffffffffffffffffff1673ffffffffffffffffffffffffffffffffffffffff16815260200191505060405180910390f35b34801561024957600080fd5b50610252610f14565b604051808215151515815260200191505060405180910390f35b34801561027857600080fd5b506102bb6004803603602081101561028f57600080fd5b81019080803573ffffffffffffffffffffffffffffffffffffffff169060200190929190505050610f6b565b604051808c81526020018b81526020018a815260200189815260200188815260200187815260200186815260200185815260200184815260200183151515158152602001821515151581526020019b50505050505050505050505060405180910390f35b34801561032b57600080fd5b5061036e6004803603602081101561034257600080fd5b81019080803573ffffffffffffffffffffffffffffffffffffffff169060200190929190505050610fdf565b005b34801561037c57600080fd5b506103bf6004803603602081101561039357600080fd5b81019080803573ffffffffffffffffffffffffffffffffffffffff1690602001909291905050506114af565b005b6103c9610f14565b15156103d457600080fd5b60015481111515156103e557600080fd5b600073ffffffffffffffffffffffffffffffffffffffff168273ffffffffffffffffffffffffffffffffffffffff161415151561042157600080fd5b610436816001546114ce90919063ffffffff16565b6001819055508173ffffffffffffffffffffffffffffffffffffffff166108fc829081150290604051600060405180830381858888f19350505050158015610482573d6000803e3d6000fd5b505050565b60015481565b8073ffffffffffffffffffffffffffffffffffffffff163373ffffffffffffffffffffffffffffffffffffffff161415156104c757600080fd5b6104cf611858565b600260008373ffffffffffffffffffffffffffffffffffffffff1673ffffffffffffffffffffffffffffffffffffffff16815260200190815260200160002061016060405190810160405290816000820154815260200160018201548152602001600282015481526020016003820154815260200160048201548152602001600582015481526020016006820154815260200160078201548152602001600882015481526020016009820160009054906101000a900460ff161515151581526020016009820160019054906101000a900460ff161515151581525050905060008160a0015111806105c557506000816101000151115b15156105d057600080fd5b6000816000015142101580156105ea575060008260a00151115b1561076457600061061783600001518460200151856040015186606001518760a0015188608001516114f0565b90506000811115610762577f3b53f2745f01e9cc7d8317d92cca0b2e25a1e0f710c5b65c2da4002d794e399f816040518080602001838152602001828103825260128152602001807f776974686472617761626c65416d6f756e7400000000000000000000000000008152506020019250505060405180910390a16106a981846080015161154e90919063ffffffff16565b600260008673ffffffffffffffffffffffffffffffffffffffff1673ffffffffffffffffffffffffffffffffffffffff16815260200190815260200160002060040181905550610706818460a001516114ce90919063ffffffff16565b600260008673ffffffffffffffffffffffffffffffffffffffff1673ffffffffffffffffffffffffffffffffffffffff1681526020019081526020016000206005018190555061075f818361154e90919063ffffffff16565b91505b505b8160200151421015801561077d57506000826101000151115b156108f95760006107ab83600001518460200151856040015186606001518760e0015188610100015161156f565b905060008111156108f7577f3b53f2745f01e9cc7d8317d92cca0b2e25a1e0f710c5b65c2da4002d794e399f816040518080602001838152602001828103825260118152602001807f776974686472617761626c65426f6e75730000000000000000000000000000008152506020019250505060405180910390a161083d818460e0015161154e90919063ffffffff16565b600260008673ffffffffffffffffffffffffffffffffffffffff1673ffffffffffffffffffffffffffffffffffffffff1681526020019081526020016000206007018190555061089b818461010001516114ce90919063ffffffff16565b600260008673ffffffffffffffffffffffffffffffffffffffff1673ffffffffffffffffffffffffffffffffffffffff168152602001908152602001600020600801819055506108f4818361154e90919063ffffffff16565b91505b505b60008111156109b5578273ffffffffffffffffffffffffffffffffffffffff166108fc829081150290604051600060405180830381858888f19350505050158015610948573d6000803e3d6000fd5b507f7084f5476618d8e60b11ef0d7d3f06914655adb8793e28ff7f018d4c76d505d58382604051808373ffffffffffffffffffffffffffffffffffffffff1673ffffffffffffffffffffffffffffffffffffffff1681526020018281526020019250505060405180910390a15b505050565b6109c2610f14565b15156109cd57600080fd5b6109d5611858565b600260008473ffffffffffffffffffffffffffffffffffffffff1673ffffffffffffffffffffffffffffffffffffffff16815260200190815260200160002061016060405190810160405290816000820154815260200160018201548152602001600282015481526020016003820154815260200160048201548152602001600582015481526020016006820154815260200160078201548152602001600882015481526020016009820160009054906101000a900460ff161515151581526020016009820160019054906101000a900460ff161515151581525050905060008160a001511180610acb57506000816101000151115b1515610ad657600080fd5b60008160800151141515610ae957600080fd5b6000816000015114151515610afd57600080fd5b6000600260008473ffffffffffffffffffffffffffffffffffffffff1673ffffffffffffffffffffffffffffffffffffffff16815260200190815260200160002060000154141515610bdd576040517f08c379a00000000000000000000000000000000000000000000000000000000081526004018080602001828103825260228152602001807f63616e206e6f74206f7665727772697465206578697374696e6720766573746981526020017f6e6700000000000000000000000000000000000000000000000000000000000081525060400191505060405180910390fd5b6000600260008473ffffffffffffffffffffffffffffffffffffffff1673ffffffffffffffffffffffffffffffffffffffff16815260200190815260200160002060030154141515610cbd576040517f08c379a00000000000000000000000000000000000000000000000000000000081526004018080602001828103825260228152602001807f63616e206e6f74206f7665727772697465206578697374696e6720766573746981526020017f6e6700000000000000000000000000000000000000000000000000000000000081525060400191505060405180910390fd5b80600260008473ffffffffffffffffffffffffffffffffffffffff1673ffffffffffffffffffffffffffffffffffffffff168152602001908152602001600020600082015181600001556020820151816001015560408201518160020155606082015181600301556080820151816004015560a0820151816005015560c0820151816006015560e0820151816007015561010082015181600801556101208201518160090160006101000a81548160ff0219169083151502179055506101408201518160090160016101000a81548160ff021916908315150217905550905050600260008473ffffffffffffffffffffffffffffffffffffffff1673ffffffffffffffffffffffffffffffffffffffff168152602001908152602001600020600080820160009055600182016000905560028201600090556003820160009055600482016000905560058201600090556006820160009055600782016000905560088201600090556009820160006101000a81549060ff02191690556009820160016101000a81549060ff021916905550507fd77a2228cdb1c1e8932bfd6a14ee457fcb127fc8513666e2f16bdb5687d631c88383604051808373ffffffffffffffffffffffffffffffffffffffff1673ffffffffffffffffffffffffffffffffffffffff1681526020018273ffffffffffffffffffffffffffffffffffffffff1673ffffffffffffffffffffffffffffffffffffffff1681526020019250505060405180910390a1505050565b60008060009054906101000a900473ffffffffffffffffffffffffffffffffffffffff16905090565b60008060009054906101000a900473ffffffffffffffffffffffffffffffffffffffff1673ffffffffffffffffffffffffffffffffffffffff163373ffffffffffffffffffffffffffffffffffffffff1614905090565b60026020528060005260406000206000915090508060000154908060010154908060020154908060030154908060040154908060050154908060060154908060070154908060080154908060090160009054906101000a900460ff16908060090160019054906101000a900460ff1690508b565b610fe7610f14565b1515610ff257600080fd5b610ffa611858565b600260008373ffffffffffffffffffffffffffffffffffffffff1673ffffffffffffffffffffffffffffffffffffffff16815260200190815260200160002061016060405190810160405290816000820154815260200160018201548152602001600282015481526020016003820154815260200160048201548152602001600582015481526020016006820154815260200160078201548152602001600882015481526020016009820160009054906101000a900460ff161515151581526020016009820160019054906101000a900460ff16151515158152505090506001151581610120015115151415156110f057600080fd5b60001515816101400151151514151561110857600080fd5b600061113082600001518360200151846040015185606001518660a0015187608001516114f0565b9050600061115b83600001518460200151856040015186606001518760e0015188610100015161156f565b90506000611176838560a001516114ce90919063ffffffff16565b90506000611191838660c001516114ce90919063ffffffff16565b90506111ba816111ac8460015461154e90919063ffffffff16565b61154e90919063ffffffff16565b6001819055506111d784866080015161154e90919063ffffffff16565b600260008873ffffffffffffffffffffffffffffffffffffffff1673ffffffffffffffffffffffffffffffffffffffff168152602001908152602001600020600401819055506000600260008873ffffffffffffffffffffffffffffffffffffffff1673ffffffffffffffffffffffffffffffffffffffff1681526020019081526020016000206005018190555061127c838660e0015161154e90919063ffffffff16565b600260008873ffffffffffffffffffffffffffffffffffffffff1673ffffffffffffffffffffffffffffffffffffffff168152602001908152602001600020600701819055506000600260008873ffffffffffffffffffffffffffffffffffffffff1673ffffffffffffffffffffffffffffffffffffffff168152602001908152602001600020600801819055506001600260008873ffffffffffffffffffffffffffffffffffffffff1673ffffffffffffffffffffffffffffffffffffffff16815260200190815260200160002060090160016101000a81548160ff02191690831515021790555060008411806113745750600083115b1561144457600061138e848661154e90919063ffffffff16565b90508673ffffffffffffffffffffffffffffffffffffffff166108fc829081150290604051600060405180830381858888f193505050501580156113d6573d6000803e3d6000fd5b507f7084f5476618d8e60b11ef0d7d3f06914655adb8793e28ff7f018d4c76d505d58782604051808373ffffffffffffffffffffffffffffffffffffffff1673ffffffffffffffffffffffffffffffffffffffff1681526020018281526020019250505060405180910390a1505b7f8cd79b36eae18470f999ddc31362fc2315d3508e4e0f687df8b09f866164ff2f86604051808273ffffffffffffffffffffffffffffffffffffffff1673ffffffffffffffffffffffffffffffffffffffff16815260200191505060405180910390a1505050505050565b6114b7610f14565b15156114c257600080fd5b6114cb8161164f565b50565b60008282111515156114df57600080fd5b600082840390508091505092915050565b6000806114ff88888888611749565b9050600061151684836114ce90919063ffffffff16565b9050874210151561152b578492505050611544565b808511151561153e578492505050611544565b80925050505b9695505050505050565b600080828401905083811015151561156557600080fd5b8091505092915050565b600061159685611588878961154e90919063ffffffff16565b61154e90919063ffffffff16565b421015156115a657819050611645565b6115b9858761154e90919063ffffffff16565b421015156116405760006115fb60016115ed886115df8c8c6114ce90919063ffffffff16565b6117f090919063ffffffff16565b61154e90919063ffffffff16565b9050600061160986836117f0565b9050600061162086836114ce90919063ffffffff16565b90508085101561163557849350505050611645565b809350505050611645565b600090505b9695505050505050565b600073ffffffffffffffffffffffffffffffffffffffff168173ffffffffffffffffffffffffffffffffffffffff161415151561168b57600080fd5b8073ffffffffffffffffffffffffffffffffffffffff166000809054906101000a900473ffffffffffffffffffffffffffffffffffffffff1673ffffffffffffffffffffffffffffffffffffffff167f8be0079c531659141344cd1fd0a4f28419497f9722a3daafe3b4186f6b6457e060405160405180910390a3806000806101000a81548173ffffffffffffffffffffffffffffffffffffffff021916908373ffffffffffffffffffffffffffffffffffffffff16021790555050565b6000834210151561175c578190506117e8565b600061179660016117888661177a8a8a6114ce90919063ffffffff16565b6117f090919063ffffffff16565b61154e90919063ffffffff16565b9050600060016117c1866117b38a426114ce90919063ffffffff16565b6117f090919063ffffffff16565b01905060006117d085846117f0565b905060006117de828461181a565b9050809450505050505b949350505050565b6000808211151561180057600080fd5b6000828481151561180d57fe5b0490508091505092915050565b60008083141561182d5760009050611852565b6000828402905082848281151561184057fe5b0414151561184d57600080fd5b809150505b92915050565b61016060405190810160405280600081526020016000815260200160008152602001600081526020016000815260200160008152602001600081526020016000815260200160008152602001600015158152602001600015158152509056fea165627a7a7230582037b676f31d5e9e17ad80fa0eeac05b150ab4a3e25e091e16c89b7b52730048440029",
  "source": "pragma solidity ^0.5.0;\n\nimport './utils/SafeMath.sol';\nimport './utils/Ownable.sol';\n\n/// @title Monthly vesting with bonus\ncontract Vesting is Ownable {\n  using SafeMath for uint256;\n\n  // The total amount of revoked tokens\n  uint256 public revokedAmount;\n\n  struct VestingSchedule {\n    uint256 startTimestamp; // timestamp of when vesting begins\n    uint256 endTimestamp; // timestamp of when vesting ends\n    uint256 lockPeriod; // amount of time in seconds between withdrawal periods. (EG. 6 months or 1 month)\n    uint256 balanceInitial; // the initial amount of tokens to be vested that does not include the amount given as a bonus. Will not change\n    uint256 balanceClaimed; // amount the beneficiary has released and claimed from the initial amount\n    uint256 balanceRemaining; // the balanceInitial less the balanceClaimed. The remaining amount that can be vested\n    uint256 bonusInitial; // the initial amount of tokens given as a bonus. Will not change\n    uint256 bonusClaimed; // amount the beneficiary has released and claimed from the initial bonus\n    uint256 bonusRemaining; // the bonusInitial less the bonusClaimed. The remaining amount of the bonus that can be vested\n    bool revocable; // whether the vesting is revocable or not\n    bool revoked; // whether the vesting has been revoked or not\n  }\n\n  mapping (address => VestingSchedule) public vestings;\n\n  /**\n   * Event for when a new vesting schedule is created\n   *\n   * @param _beneficiary Address of contributor tokens minted and vested for\n   * @param _amount Number of token purchased or minted not including any bonus\n   * @param _bonus The number of tokens given as a bonus when minting or received from early crowdsale participation\n   */\n  event NewVesting(address _beneficiary, uint256 _amount, uint256 _bonus);\n\n  /**\n   * Event for when the beneficiary releases vested tokens to their account/wallet\n   * @param _recipient address beneficiary/recipient tokens released to\n   * @param _amount the number of tokens release\n   */\n  event Withdrawn(address _recipient, uint256 _amount);\n\n  /**\n   * Event for when the owner revokes the vesting of a contributor releasing any vested tokens to the beneficiary,\n   * and the remaining balance going to the contract to be distributed by the contact owner\n   * @param _beneficiary address of beneficiary vesting is being cancelled for\n   */\n  event RevokedVesting(address _beneficiary);\n\n  /**\n   * Event for when the owner updates the vesting of a contributor\n   * @param _beneficiary address of beneficiary vesting is being update for\n   * @param _newBeneficiary address of new beneficiary vesting is being update for\n   */\n  event UpdateVesting(address _beneficiary, address _newBeneficiary);\n\n  event LogInt(string _type, uint _uint);\n\n  constructor() public {\n  }\n\n  /**\n   * @dev Sets the vesting schedule for a beneficiary who either purchased tokens or had them minted\n   *\n   * @param _beneficiary The recipient of the allocation\n   * @param _amount The base allocation amount. Does NOT include the bonus\n   * @param _bonus The bonus amount\n   * @param _startTimestamp When vesting started\n   * @param _endTimestamp When vesting will be complete and all tokens available\n   * @param _lockPeriod Time interval, in seconds, between vesting releases (e.g every lock period set to 30 days = 2592000 seconds)\n   * @param _revocable Whenever the vesting is revocable or not\n   */\n  function setVestingSchedule(\n    address _beneficiary,\n    uint256 _amount,\n    uint256 _bonus,\n    uint256 _startTimestamp,\n    uint256 _endTimestamp,\n    uint256 _lockPeriod,\n    bool _revocable\n  ) internal {\n    require(vestings[_beneficiary].startTimestamp == 0);\n\n    vestings[_beneficiary] = VestingSchedule(_startTimestamp, _endTimestamp, _lockPeriod, _amount, 0, _amount, _bonus, 0, _bonus, _revocable, false);\n\n    emit NewVesting(_beneficiary, _amount, _bonus);\n  }\n\n\n  /**\n   * @dev Allows the beneficiary of a vesting schedule to release vested tokens to their account/wallet\n   *\n   * @param _beneficiary The address of the recipient of vested tokens\n   */\n  function withdraw(address payable _beneficiary) public {\n    require(msg.sender == _beneficiary);\n\n    VestingSchedule memory vestingSchedule = vestings[_beneficiary];\n    require(vestingSchedule.balanceRemaining > 0 || vestingSchedule.bonusRemaining > 0);\n    uint256 releasable;\n\n    if (now >= vestingSchedule.startTimestamp && vestingSchedule.balanceRemaining > 0) {\n      uint256 withdrawableAmount = _calculateBalanceWithdrawal(vestingSchedule.startTimestamp,\n        vestingSchedule.endTimestamp,\n        vestingSchedule.lockPeriod,\n        vestingSchedule.balanceInitial,\n        vestingSchedule.balanceRemaining,\n        vestingSchedule.balanceClaimed);\n\n      if (withdrawableAmount > 0) {\n        emit LogInt('withdrawableAmount', withdrawableAmount);\n\n        vestings[_beneficiary].balanceClaimed = vestingSchedule.balanceClaimed.add(withdrawableAmount);\n        vestings[_beneficiary].balanceRemaining = vestingSchedule.balanceRemaining.sub(withdrawableAmount);\n        releasable = releasable.add(withdrawableAmount);\n      }\n    }\n\n    if (now >= vestingSchedule.endTimestamp && vestingSchedule.bonusRemaining > 0) {\n      uint256 withdrawableBonus = _calculateBonusWithdrawal(\n        vestingSchedule.startTimestamp,\n        vestingSchedule.endTimestamp,\n        vestingSchedule.lockPeriod,\n        vestingSchedule.balanceInitial,\n        vestingSchedule.bonusClaimed,\n        vestingSchedule.bonusRemaining);\n  \n      if (withdrawableBonus > 0) {\n        emit LogInt('withdrawableBonus', withdrawableBonus);\n\n        vestings[_beneficiary].bonusClaimed = vestingSchedule.bonusClaimed.add(withdrawableBonus);\n        vestings[_beneficiary].bonusRemaining = vestingSchedule.bonusRemaining.sub(withdrawableBonus);\n        releasable = releasable.add(withdrawableBonus);\n      }\n    }\n\n    if (releasable > 0) {\n      _beneficiary.transfer(releasable);\n      emit Withdrawn(_beneficiary, releasable);\n    }\n  }\n\n  /**\n   * @dev Allows the to revoke the vesting schedule for a contributor with a vesting schedule\n   * @param _beneficiary Address of contributor with a vesting schedule to be revoked\n   */\n  function revokeVestingSchedule(address payable _beneficiary) onlyOwner public {\n    VestingSchedule memory vestingSchedule = vestings[_beneficiary];\n    require(vestingSchedule.revocable == true);\n    require(vestingSchedule.revoked == false);\n\n    uint256 refundable = _calculateBalanceWithdrawal(\n      vestingSchedule.startTimestamp,\n      vestingSchedule.endTimestamp,\n      vestingSchedule.lockPeriod,\n      vestingSchedule.balanceInitial,\n      vestingSchedule.balanceRemaining,\n      vestingSchedule.balanceClaimed);\n\n    uint256 refundableBonus = _calculateBonusWithdrawal(\n      vestingSchedule.startTimestamp,\n      vestingSchedule.endTimestamp,\n      vestingSchedule.lockPeriod,\n      vestingSchedule.balanceInitial,\n      vestingSchedule.bonusClaimed,\n      vestingSchedule.bonusRemaining);\n\n    uint256 toProjectWalletFromBalanceInitial = vestingSchedule.balanceRemaining.sub(refundable);\n    uint256 toProjectWalletFromBonusInitial = vestingSchedule.bonusInitial.sub(refundableBonus);\n    revokedAmount = revokedAmount.add(toProjectWalletFromBalanceInitial).add(toProjectWalletFromBonusInitial);\n\n    vestings[_beneficiary].balanceClaimed = vestingSchedule.balanceClaimed.add(refundable);\n    vestings[_beneficiary].balanceRemaining = 0;\n    vestings[_beneficiary].bonusClaimed = vestingSchedule.bonusClaimed.add(refundableBonus);\n    vestings[_beneficiary].bonusRemaining = 0;\n    vestings[_beneficiary].revoked = true;\n\n    if (refundable > 0 || refundableBonus > 0) {\n      uint256 totalRefundable = refundable.add(refundableBonus);\n      _beneficiary.transfer(totalRefundable);\n\n      emit Withdrawn(_beneficiary, totalRefundable);\n    }\n\n    emit RevokedVesting(_beneficiary);\n  }\n\n  /**\n   * @dev Allow the owner of the contract to update the beneficiary of a vesting schedule\n   *\n   * @param _beneficiary The recipient of the vestingSchedule\n   * @param _nextBeneficiary The new recipient of the vestingSchedule\n   */\n  function updateVestingBeneficiary(address _beneficiary, address _nextBeneficiary) onlyOwner public {\n    VestingSchedule memory vestingSchedule = vestings[_beneficiary];\n    require(vestingSchedule.balanceRemaining > 0 || vestingSchedule.bonusRemaining > 0);\n    require(vestingSchedule.balanceClaimed == 0);\n    require(vestingSchedule.startTimestamp != 0);\n    require(vestings[_nextBeneficiary].startTimestamp == 0, 'can not overwrite existing vesting');\n    require(vestings[_nextBeneficiary].balanceInitial == 0, 'can not overwrite existing vesting');\n\n    vestings[_nextBeneficiary] = vestingSchedule;\n    delete vestings[_beneficiary];\n\n    emit UpdateVesting(_beneficiary, _nextBeneficiary);\n  }\n\n  /**\n   * @dev Allows the owner to transfer any tokens that have been revoked to be transfered to another address\n   * @param _recipient The address where the tokens should be sent\n   * @param _amount Number of tokens to be transfer to recipient\n   */\n  function transferRevokedTokens(address payable _recipient, uint256 _amount) public onlyOwner {\n    require(_amount <= revokedAmount);\n    require(_recipient != address(0));\n    revokedAmount = revokedAmount.sub(_amount);\n    _recipient.transfer(_amount);\n  }\n\n  /**\n   * @dev Calculates the amount releasable. If the amount is less than the allowable amount\n   * for each lock period zero will be returned. If more than the allowable amount each month will return\n   * a multiple of the allowable amount each month\n   * @param _startTimestamp The start time of for when vesting started\n   * @param _endTimestamp The end time of for when vesting will be complete and all tokens available\n   * @param _lockPeriod time interval (in seconds) in between vesting releases (example 30 days = 2592000 seconds)\n   * @param _balanceInitial The starting number of tokens vested\n   */\n  function _calculateBalanceWithdrawal(uint256 _startTimestamp, uint256 _endTimestamp, uint256 _lockPeriod, uint256 _balanceInitial, uint256 _balanceRemaining, uint256 _balanceClaimed) internal view returns(uint256 _amountReleasable) {\n    uint256 totalAmountVested = _calculateTotalAmountVested(_startTimestamp, _endTimestamp, _lockPeriod, _balanceInitial);\n    uint256 amountWithdrawable = totalAmountVested.sub(_balanceClaimed);\n\n    // If it's past the end time, the whole amount is available.\n    if (now >= _endTimestamp) {\n      return _balanceRemaining;\n    }\n\n    if (_balanceRemaining <= amountWithdrawable) {\n      return _balanceRemaining;\n    }\n\n    return amountWithdrawable;\n  }\n\n  /**\n   * @dev Calculates the amount of the bonus that is releasable. If the amount is less than the allowable amount\n   * for each lock period zero will be returned. It has been _lockPeriod days since the initial vesting has ended an amount\n   * equal to the original releases will be returned.  If over _lockPeriod*2 days the entire bonus can be released\n   * @param _startTimestamp The start time of for when vesting started\n   * @param _endTimestamp The end time of for when vesting will be complete and all tokens available\n   * @param _lockPeriod time interval (ins seconds) in between vesting releases (example 30 days = 2592000 seconds)\n   * @param _balanceInitial The starting number of tokens vested\n   * @param _bonusClaimed The amount of bonus already claimed\n   * @param _bonusRemaining The current balance of the vested bonus\n   */\n\n  function _calculateBonusWithdrawal(uint256 _startTimestamp, uint _endTimestamp, uint256 _lockPeriod, uint256 _balanceInitial, uint256 _bonusClaimed, uint256 _bonusRemaining) internal view returns(uint256 _amountWithdrawable) {\n    if (now >= _endTimestamp.add(_lockPeriod).add(_lockPeriod)) {\n      return _bonusRemaining;\n    } else if (now >= _endTimestamp.add(_lockPeriod)) {\n      // calculate the number of time periods vesting is done over\n      uint256 lockPeriods = (_endTimestamp.sub(_startTimestamp)).div(_lockPeriod).add(1);\n      uint256 amountWithdrawablePerLockPeriod = SafeMath.div(_balanceInitial, lockPeriods);\n      uint256 amountWithdrawable = amountWithdrawablePerLockPeriod.sub(_bonusClaimed);\n\n      if (_bonusRemaining < amountWithdrawable) {\n        return _bonusRemaining;\n      }\n\n      return amountWithdrawable;\n    }\n\n    return 0;\n  }\n\n  /**\n   * @dev Calculates the total amount vested since the start time. If after the endTime\n   * the entire balanceRemaining is returned\n   */\n  function _calculateTotalAmountVested(uint256 _startTimestamp, uint256 _endTimestamp, uint256 _lockPeriod, uint256 _balanceInitial) internal view returns (uint256 _amountVested) {\n    // If it's past the end time, the whole amount is available.\n    if (now >= _endTimestamp) {\n      return _balanceInitial;\n    }\n\n    // calculate the number of time periods vesting is done over\n    uint256 lockPeriods = (_endTimestamp.sub(_startTimestamp)).div(_lockPeriod).add(1);\n    uint256 curPeriod = (now.sub(_startTimestamp)).div(_lockPeriod) + 1;\n    uint256 amountWithdrawablePerLockPeriod = SafeMath.div(_balanceInitial, lockPeriods);\n\n    uint256 vestedAmount = SafeMath.mul(amountWithdrawablePerLockPeriod, curPeriod);\n    return vestedAmount;\n  }\n}\n",
  "sourcePath": "/home/ggarrido/lightstreams/workspace/tge/contracts/Vesting.sol",
  "compiler": {
    "name": "solc",
    "version": "0.5.0+commit.1d4f565a.Emscripten.clang"
  },
  "schemaVersion": "3.0.6",
  "updatedAt": "2019-07-15T12:15:54.587Z",
  "devdoc": {
    "methods": {
      "isOwner()": {
        "return": "true if `msg.sender` is the owner of the contract."
      },
      "owner()": {
        "return": "the address of the owner."
      },
      "revokeVestingSchedule(address)": {
        "details": "Allows the to revoke the vesting schedule for a contributor with a vesting schedule",
        "params": {
          "_beneficiary": "Address of contributor with a vesting schedule to be revoked"
        }
      },
      "transferOwnership(address)": {
        "details": "Allows the current owner to transfer control of the contract to a newOwner.",
        "params": {
          "newOwner": "The address to transfer ownership to."
        }
      },
      "transferRevokedTokens(address,uint256)": {
        "details": "Allows the owner to transfer any tokens that have been revoked to be transfered to another address",
        "params": {
          "_amount": "Number of tokens to be transfer to recipient",
          "_recipient": "The address where the tokens should be sent"
        }
      },
      "updateVestingBeneficiary(address,address)": {
        "details": "Allow the owner of the contract to update the beneficiary of a vesting schedule",
        "params": {
          "_beneficiary": "The recipient of the vestingSchedule",
          "_nextBeneficiary": "The new recipient of the vestingSchedule"
        }
      },
      "withdraw(address)": {
        "details": "Allows the beneficiary of a vesting schedule to release vested tokens to their account/wallet",
        "params": {
          "_beneficiary": "The address of the recipient of vested tokens"
        }
      }
    },
    "title": "Monthly vesting with bonus"
  },
  "userdoc": {
    "methods": {}
  }
}